S01700004763634170706C69636174696F6E312E737265635B
S11300000C94FA000C940A010C940A010C940A0151
S11300100C940A010C940A010C940A010C940A0130
S11300200C940A010C940A010C940A010C940A0120
S11300300C940A010C940A010C940A010C940A0110
S11300400C940A010C940A010C940A010C940A0100
S11300500C940A010C940A010C940A010C940A01F0
S11300600C940A010C940A010C940A010C940A01E0
S11300700C940A010C940A010C940A010C940A01D0
S11300800C940A010C940A010C940A010C940A01C0
S11300900C940A010C940A010C940A010C940A01B0
S11300A00C940A010C940A010C940A010C940A01A0
S11300B00C940A010C940A010C940A010C940A0190
S11300C00C940A010C940A010C940A010C940A0180
S11300D00C940A010C940A010C940A010C940A0170
S11300E00C940A010C940A010C940A010C940A0160
S11300F00C940A010C940A010C940A010C940A0150
S11301000C940A010C940A010C940A010C940A013F
S11301100C940A010C940A010C940A010C940A012F
S11301200C940A010C940A010C940A010C940A011F
S11301300C940A010C940A010C940A010C940A010F
S11301400C940A010C940A010C940A010C940A01FF
S11301500C940A010C940A010C940A010C940A01EF
S11301600C940A010C940A010C940A010C940A01DF
S11301700C940A010C940A010C940A010C940A01CF
S11301800C940A010C940A010C940A010C940A01BF
S11301900C940A010C940A010C940A010C940A01AF
S11301A00C940A010C940A010C940A010C940A019F
S11301B00C940A010C940A010C940A010C940A018F
S11301C00C940A010C940A010C940A010C940A017F
S11301D00C940A010C940A010C940A010C940A016F
S11301E00C940A010C940A010C940A010C940A015F
S11301F00C940A0111241FBECFEFCDBFDFE3DEBF95
S113020000E00CBF18BE19BE1ABE1BBE0E940C0132
S11302100C94AC010C940000E0E0F6E080E28183F1
S1130220858310E0C0E0D0E00F2EE12CF6E0FF2E35
S1130230F02D00E22196111111C0BE0180E090E082
S11302400E94460120E030E04EEB53E40E9441015D
S1130250882324F4F701058311E003C0F701068322
S113026010E0BE0180E090E00E94460120E030E70B
S113027044E157E40E94A7011816E4F6C0E0D0E078
S1130280D9CF0E94830108F481E00895E89409C05D
S113029097FB3EF490958095709561957F4F8F4FB5
S11302A09F4F9923A9F0F92F96E9BB279395F695CB
S11302B0879577956795B795F111F8CFFAF4BB0F49
S11302C011F460FF1BC06F5F7F4F8F4F9F4F16C0AD
S11302D0882311F096E911C0772321F09EE8872F37
S11302E0762F05C0662371F096E8862F70E060E0F3
S11302F02AF09A95660F771F881FDAF7880F96956C
S1130300879597F90895990F0008550FAA0BE0E80F
S1130310FEEF16161706E807F907C0F012161306C3
S1130320E407F50798F0621B730B840B950B39F403
S11303300A2661F0232B242B252B21F408950A2669
S113034009F4A140A6958FEF811D811D08950E9497
S10F0350830108F48FEF0895F894FFCFA8
S9030000FC
